{
  "contractName": "Dex",
  "abi": [
    {
      "inputs": [],
      "stateMutability": "nonpayable",
      "type": "constructor"
    },
    {
      "anonymous": false,
      "inputs": [
        {
          "indexed": false,
          "internalType": "uint256",
          "name": "tradeId",
          "type": "uint256"
        },
        {
          "indexed": false,
          "internalType": "uint256",
          "name": "orderId",
          "type": "uint256"
        },
        {
          "indexed": true,
          "internalType": "bytes32",
          "name": "ticker",
          "type": "bytes32"
        },
        {
          "indexed": true,
          "internalType": "address",
          "name": "trader1",
          "type": "address"
        },
        {
          "indexed": true,
          "internalType": "address",
          "name": "trader2",
          "type": "address"
        },
        {
          "indexed": false,
          "internalType": "uint256",
          "name": "amount",
          "type": "uint256"
        },
        {
          "indexed": false,
          "internalType": "uint256",
          "name": "price",
          "type": "uint256"
        },
        {
          "indexed": false,
          "internalType": "uint256",
          "name": "date",
          "type": "uint256"
        }
      ],
      "name": "NewTrade",
      "type": "event"
    },
    {
      "inputs": [],
      "name": "admin",
      "outputs": [
        {
          "internalType": "address",
          "name": "",
          "type": "address"
        }
      ],
      "stateMutability": "view",
      "type": "function",
      "constant": true
    },
    {
      "inputs": [],
      "name": "nextOrderId",
      "outputs": [
        {
          "internalType": "uint256",
          "name": "",
          "type": "uint256"
        }
      ],
      "stateMutability": "view",
      "type": "function",
      "constant": true
    },
    {
      "inputs": [],
      "name": "nextTraderId",
      "outputs": [
        {
          "internalType": "uint256",
          "name": "",
          "type": "uint256"
        }
      ],
      "stateMutability": "view",
      "type": "function",
      "constant": true
    },
    {
      "inputs": [
        {
          "internalType": "bytes32",
          "name": "",
          "type": "bytes32"
        },
        {
          "internalType": "uint256",
          "name": "",
          "type": "uint256"
        },
        {
          "internalType": "uint256",
          "name": "",
          "type": "uint256"
        }
      ],
      "name": "orderBook",
      "outputs": [
        {
          "internalType": "uint256",
          "name": "id",
          "type": "uint256"
        },
        {
          "internalType": "address",
          "name": "trader",
          "type": "address"
        },
        {
          "internalType": "enum Dex.Side",
          "name": "side",
          "type": "uint8"
        },
        {
          "internalType": "bytes32",
          "name": "ticker",
          "type": "bytes32"
        },
        {
          "internalType": "uint256",
          "name": "amount",
          "type": "uint256"
        },
        {
          "internalType": "uint256",
          "name": "filled",
          "type": "uint256"
        },
        {
          "internalType": "uint256",
          "name": "price",
          "type": "uint256"
        },
        {
          "internalType": "uint256",
          "name": "date",
          "type": "uint256"
        }
      ],
      "stateMutability": "view",
      "type": "function",
      "constant": true
    },
    {
      "inputs": [
        {
          "internalType": "uint256",
          "name": "",
          "type": "uint256"
        }
      ],
      "name": "tokenList",
      "outputs": [
        {
          "internalType": "bytes32",
          "name": "",
          "type": "bytes32"
        }
      ],
      "stateMutability": "view",
      "type": "function",
      "constant": true
    },
    {
      "inputs": [
        {
          "internalType": "bytes32",
          "name": "",
          "type": "bytes32"
        }
      ],
      "name": "tokens",
      "outputs": [
        {
          "internalType": "bytes32",
          "name": "ticker",
          "type": "bytes32"
        },
        {
          "internalType": "address",
          "name": "tokenAddress",
          "type": "address"
        }
      ],
      "stateMutability": "view",
      "type": "function",
      "constant": true
    },
    {
      "inputs": [
        {
          "internalType": "address",
          "name": "",
          "type": "address"
        },
        {
          "internalType": "bytes32",
          "name": "",
          "type": "bytes32"
        }
      ],
      "name": "traderBalances",
      "outputs": [
        {
          "internalType": "uint256",
          "name": "",
          "type": "uint256"
        }
      ],
      "stateMutability": "view",
      "type": "function",
      "constant": true
    },
    {
      "inputs": [
        {
          "internalType": "bytes32",
          "name": "ticker",
          "type": "bytes32"
        },
        {
          "internalType": "enum Dex.Side",
          "name": "side",
          "type": "uint8"
        }
      ],
      "name": "getOrders",
      "outputs": [
        {
          "components": [
            {
              "internalType": "uint256",
              "name": "id",
              "type": "uint256"
            },
            {
              "internalType": "address",
              "name": "trader",
              "type": "address"
            },
            {
              "internalType": "enum Dex.Side",
              "name": "side",
              "type": "uint8"
            },
            {
              "internalType": "bytes32",
              "name": "ticker",
              "type": "bytes32"
            },
            {
              "internalType": "uint256",
              "name": "amount",
              "type": "uint256"
            },
            {
              "internalType": "uint256",
              "name": "filled",
              "type": "uint256"
            },
            {
              "internalType": "uint256",
              "name": "price",
              "type": "uint256"
            },
            {
              "internalType": "uint256",
              "name": "date",
              "type": "uint256"
            }
          ],
          "internalType": "struct Dex.Order[]",
          "name": "",
          "type": "tuple[]"
        }
      ],
      "stateMutability": "view",
      "type": "function",
      "constant": true
    },
    {
      "inputs": [],
      "name": "getTokens",
      "outputs": [
        {
          "components": [
            {
              "internalType": "bytes32",
              "name": "ticker",
              "type": "bytes32"
            },
            {
              "internalType": "address",
              "name": "tokenAddress",
              "type": "address"
            }
          ],
          "internalType": "struct Dex.Token[]",
          "name": "",
          "type": "tuple[]"
        }
      ],
      "stateMutability": "view",
      "type": "function",
      "constant": true
    },
    {
      "inputs": [
        {
          "internalType": "bytes32",
          "name": "ticker",
          "type": "bytes32"
        },
        {
          "internalType": "address",
          "name": "tokenAddress",
          "type": "address"
        }
      ],
      "name": "addToken",
      "outputs": [],
      "stateMutability": "nonpayable",
      "type": "function"
    },
    {
      "inputs": [
        {
          "internalType": "uint256",
          "name": "amount",
          "type": "uint256"
        },
        {
          "internalType": "bytes32",
          "name": "ticker",
          "type": "bytes32"
        }
      ],
      "name": "deposit",
      "outputs": [],
      "stateMutability": "nonpayable",
      "type": "function"
    },
    {
      "inputs": [
        {
          "internalType": "uint256",
          "name": "amount",
          "type": "uint256"
        },
        {
          "internalType": "bytes32",
          "name": "ticker",
          "type": "bytes32"
        }
      ],
      "name": "withdraw",
      "outputs": [],
      "stateMutability": "nonpayable",
      "type": "function"
    },
    {
      "inputs": [
        {
          "internalType": "bytes32",
          "name": "ticker",
          "type": "bytes32"
        },
        {
          "internalType": "uint256",
          "name": "amount",
          "type": "uint256"
        },
        {
          "internalType": "uint256",
          "name": "price",
          "type": "uint256"
        },
        {
          "internalType": "enum Dex.Side",
          "name": "side",
          "type": "uint8"
        }
      ],
      "name": "createLimitOrder",
      "outputs": [],
      "stateMutability": "nonpayable",
      "type": "function"
    },
    {
      "inputs": [
        {
          "internalType": "bytes32",
          "name": "ticker",
          "type": "bytes32"
        },
        {
          "internalType": "uint256",
          "name": "amount",
          "type": "uint256"
        },
        {
          "internalType": "enum Dex.Side",
          "name": "side",
          "type": "uint8"
        }
      ],
      "name": "createMarketOrder",
      "outputs": [],
      "stateMutability": "nonpayable",
      "type": "function"
    }
  ],
  "bytecode": "0x608060405234801561001057600080fd5b5033600360006101000a81548173ffffffffffffffffffffffffffffffffffffffff021916908373ffffffffffffffffffffffffffffffffffffffff160217905550613e18806100616000396000f3fe608060405234801561001057600080fd5b50600436106100ea5760003560e01c80639776aacf1161008c578063aa6ca80811610066578063aa6ca80814610277578063c9630cb014610295578063d9c0c950146102b1578063f851a440146102cd576100ea565b80639776aacf1461020f5780639ead72221461022b578063a8d2021a1461025b576100ea565b806346e9658b116100c857806346e9658b1461016257806372ce957e146101925780637f2c6246146101c2578063904194a3146101de576100ea565b80630bb431b6146100ef57806323364162146101265780632a58b33014610144575b600080fd5b61010960048036038101906101049190613361565b6102eb565b60405161011d989796959493929190613a0c565b60405180910390f35b61012e61038a565b60405161013b91906139f1565b60405180910390f35b61014c610390565b60405161015991906139f1565b60405180910390f35b61017c600480360381019061017791906132d6565b610396565b60405161018991906138a9565b60405180910390f35b6101ac60048036038101906101a7919061320c565b61056c565b6040516101b991906139f1565b60405180910390f35b6101dc60048036038101906101d79190613312565b610591565b005b6101f860048036038101906101f39190613271565b611caa565b604051610206929190613908565b60405180910390f35b6102296004803603810190610224919061329a565b611cee565b005b61024560048036038101906102409190613413565b611e3c565b60405161025291906138ed565b60405180910390f35b6102756004803603810190610270919061343c565b611e60565b005b61027f612118565b60405161028c91906138cb565b60405180910390f35b6102af60048036038101906102aa919061343c565b612309565b005b6102cb60048036038101906102c691906133b0565b612530565b005b6102d5613108565b6040516102e2919061382e565b60405180910390f35b6002602052826000526040600020602052816000526040600020818154811061031357600080fd5b906000526020600020906007020160009250925050508060000154908060010160009054906101000a900473ffffffffffffffffffffffffffffffffffffffff16908060010160149054906101000a900460ff16908060020154908060030154908060040154908060050154908060060154905088565b60065481565b60055481565b60606002600084815260200190815260200160002060008360018111156103e6577f4e487b7100000000000000000000000000000000000000000000000000000000600052602160045260246000fd5b8152602001908152602001600020805480602002602001604051908101604052809291908181526020016000905b82821015610560578382906000526020600020906007020160405180610100016040529081600082015481526020016001820160009054906101000a900473ffffffffffffffffffffffffffffffffffffffff1673ffffffffffffffffffffffffffffffffffffffff1673ffffffffffffffffffffffffffffffffffffffff1681526020016001820160149054906101000a900460ff1660018111156104e3577f4e487b7100000000000000000000000000000000000000000000000000000000600052602160045260246000fd5b600181111561051b577f4e487b7100000000000000000000000000000000000000000000000000000000600052602160045260246000fd5b81526020016002820154815260200160038201548152602001600482015481526020016005820154815260200160068201548152505081526020019060010190610414565b50505050905092915050565b6001602052816000526040600020602052806000526040600020600091509150505481565b82600073ffffffffffffffffffffffffffffffffffffffff1660008083815260200190815260200160002060010160009054906101000a900473ffffffffffffffffffffffffffffffffffffffff1673ffffffffffffffffffffffffffffffffffffffff161415610637576040517f08c379a000000000000000000000000000000000000000000000000000000000815260040161062e906139d1565b60405180910390fd5b837f444149000000000000000000000000000000000000000000000000000000000081141561069b576040517f08c379a000000000000000000000000000000000000000000000000000000000815260040161069290613971565b60405180910390fd5b6001808111156106d4577f4e487b7100000000000000000000000000000000000000000000000000000000600052602160045260246000fd5b83600181111561070d577f4e487b7100000000000000000000000000000000000000000000000000000000600052602160045260246000fd5b14156107a75783600160003373ffffffffffffffffffffffffffffffffffffffff1673ffffffffffffffffffffffffffffffffffffffff16815260200190815260200160002060008781526020019081526020016000205410156107a6576040517f08c379a000000000000000000000000000000000000000000000000000000000815260040161079d90613991565b60405180910390fd5b5b60006002600087815260200190815260200160002060008060018111156107f7577f4e487b7100000000000000000000000000000000000000000000000000000000600052602160045260246000fd5b866001811115610830577f4e487b7100000000000000000000000000000000000000000000000000000000600052602160045260246000fd5b1461083c57600061083f565b60015b6001811115610877577f4e487b7100000000000000000000000000000000000000000000000000000000600052602160045260246000fd5b815260200190815260200160002090506000808690505b8280549050821080156108a15750600081115b1561194557600061094f8484815481106108e4577f4e487b7100000000000000000000000000000000000000000000000000000000600052603260045260246000fd5b90600052602060002090600702016004015485858154811061092f577f4e487b7100000000000000000000000000000000000000000000000000000000600052603260045260246000fd5b90600052602060002090600702016003015461312e90919063ffffffff16565b905060008183116109605782610962565b815b9050610977818461312e90919063ffffffff16565b92506109d6818686815481106109b6577f4e487b7100000000000000000000000000000000000000000000000000000000600052603260045260246000fd5b90600052602060002090600702016004015461314490919063ffffffff16565b858581548110610a0f577f4e487b7100000000000000000000000000000000000000000000000000000000600052603260045260246000fd5b9060005260206000209060070201600401819055503373ffffffffffffffffffffffffffffffffffffffff16858581548110610a74577f4e487b7100000000000000000000000000000000000000000000000000000000600052603260045260246000fd5b906000526020600020906007020160010160009054906101000a900473ffffffffffffffffffffffffffffffffffffffff1673ffffffffffffffffffffffffffffffffffffffff168b7fdb0c486e680ba8026643e6a85f8d157b5e7bcd4b32b54d564542570a9eb20416600654898981548110610b1a577f4e487b7100000000000000000000000000000000000000000000000000000000600052603260045260246000fd5b906000526020600020906007020160000154868b8b81548110610b66577f4e487b7100000000000000000000000000000000000000000000000000000000600052603260045260246000fd5b90600052602060002090600702016005015442604051610b8a959493929190613a8a565b60405180910390a4600180811115610bcb577f4e487b7100000000000000000000000000000000000000000000000000000000600052602160045260246000fd5b886001811115610c04577f4e487b7100000000000000000000000000000000000000000000000000000000600052602160045260246000fd5b14156111c757610c6d81600160003373ffffffffffffffffffffffffffffffffffffffff1673ffffffffffffffffffffffffffffffffffffffff16815260200190815260200160002060008d81526020019081526020016000205461312e90919063ffffffff16565b600160003373ffffffffffffffffffffffffffffffffffffffff1673ffffffffffffffffffffffffffffffffffffffff16815260200190815260200160002060008c815260200190815260200160002081905550610da0610d21868681548110610d00577f4e487b7100000000000000000000000000000000000000000000000000000000600052603260045260246000fd5b9060005260206000209060070201600501548361315a90919063ffffffff16565b600160003373ffffffffffffffffffffffffffffffffffffffff1673ffffffffffffffffffffffffffffffffffffffff16815260200190815260200160002060007f444149000000000000000000000000000000000000000000000000000000000081526020019081526020016000205461314490919063ffffffff16565b600160003373ffffffffffffffffffffffffffffffffffffffff1673ffffffffffffffffffffffffffffffffffffffff16815260200190815260200160002060007f4441490000000000000000000000000000000000000000000000000000000000815260200190815260200160002081905550610ee18160016000888881548110610e55577f4e487b7100000000000000000000000000000000000000000000000000000000600052603260045260246000fd5b906000526020600020906007020160010160009054906101000a900473ffffffffffffffffffffffffffffffffffffffff1673ffffffffffffffffffffffffffffffffffffffff1673ffffffffffffffffffffffffffffffffffffffff16815260200190815260200160002060008d81526020019081526020016000205461314490919063ffffffff16565b60016000878781548110610f1e577f4e487b7100000000000000000000000000000000000000000000000000000000600052603260045260246000fd5b906000526020600020906007020160010160009054906101000a900473ffffffffffffffffffffffffffffffffffffffff1673ffffffffffffffffffffffffffffffffffffffff1673ffffffffffffffffffffffffffffffffffffffff16815260200190815260200160002060008c8152602001908152602001600020819055506110e8610fff868681548110610fde577f4e487b7100000000000000000000000000000000000000000000000000000000600052603260045260246000fd5b9060005260206000209060070201600501548361315a90919063ffffffff16565b6001600088888154811061103c577f4e487b7100000000000000000000000000000000000000000000000000000000600052603260045260246000fd5b906000526020600020906007020160010160009054906101000a900473ffffffffffffffffffffffffffffffffffffffff1673ffffffffffffffffffffffffffffffffffffffff1673ffffffffffffffffffffffffffffffffffffffff16815260200190815260200160002060007f444149000000000000000000000000000000000000000000000000000000000081526020019081526020016000205461312e90919063ffffffff16565b60016000878781548110611125577f4e487b7100000000000000000000000000000000000000000000000000000000600052603260045260246000fd5b906000526020600020906007020160010160009054906101000a900473ffffffffffffffffffffffffffffffffffffffff1673ffffffffffffffffffffffffffffffffffffffff1673ffffffffffffffffffffffffffffffffffffffff16815260200190815260200160002060007f44414900000000000000000000000000000000000000000000000000000000008152602001908152602001600020819055505b60006001811115611201577f4e487b7100000000000000000000000000000000000000000000000000000000600052602160045260246000fd5b88600181111561123a577f4e487b7100000000000000000000000000000000000000000000000000000000600052602160045260246000fd5b141561190c5761129d85858154811061127c577f4e487b7100000000000000000000000000000000000000000000000000000000600052603260045260246000fd5b9060005260206000209060070201600501548261315a90919063ffffffff16565b600160003373ffffffffffffffffffffffffffffffffffffffff1673ffffffffffffffffffffffffffffffffffffffff16815260200190815260200160002060007f4441490000000000000000000000000000000000000000000000000000000000815260200190815260200160002054101561134f576040517f08c379a0000000000000000000000000000000000000000000000000000000008152600401611346906139b1565b60405180910390fd5b6113b281600160003373ffffffffffffffffffffffffffffffffffffffff1673ffffffffffffffffffffffffffffffffffffffff16815260200190815260200160002060008d81526020019081526020016000205461314490919063ffffffff16565b600160003373ffffffffffffffffffffffffffffffffffffffff1673ffffffffffffffffffffffffffffffffffffffff16815260200190815260200160002060008c8152602001908152602001600020819055506114e5611466868681548110611445577f4e487b7100000000000000000000000000000000000000000000000000000000600052603260045260246000fd5b9060005260206000209060070201600501548361315a90919063ffffffff16565b600160003373ffffffffffffffffffffffffffffffffffffffff1673ffffffffffffffffffffffffffffffffffffffff16815260200190815260200160002060007f444149000000000000000000000000000000000000000000000000000000000081526020019081526020016000205461312e90919063ffffffff16565b600160003373ffffffffffffffffffffffffffffffffffffffff1673ffffffffffffffffffffffffffffffffffffffff16815260200190815260200160002060007f4441490000000000000000000000000000000000000000000000000000000000815260200190815260200160002081905550611626816001600088888154811061159a577f4e487b7100000000000000000000000000000000000000000000000000000000600052603260045260246000fd5b906000526020600020906007020160010160009054906101000a900473ffffffffffffffffffffffffffffffffffffffff1673ffffffffffffffffffffffffffffffffffffffff1673ffffffffffffffffffffffffffffffffffffffff16815260200190815260200160002060008d81526020019081526020016000205461312e90919063ffffffff16565b60016000878781548110611663577f4e487b7100000000000000000000000000000000000000000000000000000000600052603260045260246000fd5b906000526020600020906007020160010160009054906101000a900473ffffffffffffffffffffffffffffffffffffffff1673ffffffffffffffffffffffffffffffffffffffff1673ffffffffffffffffffffffffffffffffffffffff16815260200190815260200160002060008c81526020019081526020016000208190555061182d611744868681548110611723577f4e487b7100000000000000000000000000000000000000000000000000000000600052603260045260246000fd5b9060005260206000209060070201600501548361315a90919063ffffffff16565b60016000888881548110611781577f4e487b7100000000000000000000000000000000000000000000000000000000600052603260045260246000fd5b906000526020600020906007020160010160009054906101000a900473ffffffffffffffffffffffffffffffffffffffff1673ffffffffffffffffffffffffffffffffffffffff1673ffffffffffffffffffffffffffffffffffffffff16815260200190815260200160002060007f444149000000000000000000000000000000000000000000000000000000000081526020019081526020016000205461314490919063ffffffff16565b6001600087878154811061186a577f4e487b7100000000000000000000000000000000000000000000000000000000600052603260045260246000fd5b906000526020600020906007020160010160009054906101000a900473ffffffffffffffffffffffffffffffffffffffff1673ffffffffffffffffffffffffffffffffffffffff1673ffffffffffffffffffffffffffffffffffffffff16815260200190815260200160002060007f44414900000000000000000000000000000000000000000000000000000000008152602001908152602001600020819055505b611922600160065461314490919063ffffffff16565b60068190555061193c60018561314490919063ffffffff16565b9350505061088e565b600091505b8280549050821080156119f05750828281548110611991577f4e487b7100000000000000000000000000000000000000000000000000000000600052603260045260246000fd5b9060005260206000209060070201600301548383815481106119dc577f4e487b7100000000000000000000000000000000000000000000000000000000600052603260045260246000fd5b906000526020600020906007020160040154145b15611ca05760008290505b60018480549050611a0c9190613c10565b811015611bc95783600182611a219190613b60565b81548110611a58577f4e487b7100000000000000000000000000000000000000000000000000000000600052603260045260246000fd5b9060005260206000209060070201848281548110611a9f577f4e487b7100000000000000000000000000000000000000000000000000000000600052603260045260246000fd5b9060005260206000209060070201600082015481600001556001820160009054906101000a900473ffffffffffffffffffffffffffffffffffffffff168160010160006101000a81548173ffffffffffffffffffffffffffffffffffffffff021916908373ffffffffffffffffffffffffffffffffffffffff1602179055506001820160149054906101000a900460ff168160010160146101000a81548160ff02191690836001811115611b7c577f4e487b7100000000000000000000000000000000000000000000000000000000600052602160045260246000fd5b021790555060028201548160020155600382015481600301556004820154816004015560058201548160050155600682015481600601559050508080611bc190613cbb565b9150506119fb565b5082805480611c01577f4e487b7100000000000000000000000000000000000000000000000000000000600052603160045260246000fd5b60019003818190600052602060002090600702016000808201600090556001820160006101000a81549073ffffffffffffffffffffffffffffffffffffffff02191690556001820160146101000a81549060ff02191690556002820160009055600382016000905560048201600090556005820160009055600682016000905550509055611c9960018361314490919063ffffffff16565b915061194a565b5050505050505050565b60006020528060005260406000206000915090508060000154908060010160009054906101000a900473ffffffffffffffffffffffffffffffffffffffff16905082565b600360009054906101000a900473ffffffffffffffffffffffffffffffffffffffff1673ffffffffffffffffffffffffffffffffffffffff163373ffffffffffffffffffffffffffffffffffffffff1614611d7e576040517f08c379a0000000000000000000000000000000000000000000000000000000008152600401611d7590613951565b60405180910390fd5b60405180604001604052808381526020018273ffffffffffffffffffffffffffffffffffffffff168152506000808481526020019081526020016000206000820151816000015560208201518160010160006101000a81548173ffffffffffffffffffffffffffffffffffffffff021916908373ffffffffffffffffffffffffffffffffffffffff16021790555090505060048290806001815401808255809150506001900390600052602060002001600090919091909150555050565b60048181548110611e4c57600080fd5b906000526020600020016000915090505481565b80600073ffffffffffffffffffffffffffffffffffffffff1660008083815260200190815260200160002060010160009054906101000a900473ffffffffffffffffffffffffffffffffffffffff1673ffffffffffffffffffffffffffffffffffffffff161415611f06576040517f08c379a0000000000000000000000000000000000000000000000000000000008152600401611efd906139d1565b60405180910390fd5b82600160003373ffffffffffffffffffffffffffffffffffffffff1673ffffffffffffffffffffffffffffffffffffffff1681526020019081526020016000206000848152602001908152602001600020541015611f99576040517f08c379a0000000000000000000000000000000000000000000000000000000008152600401611f9090613931565b60405180910390fd5b611ffc83600160003373ffffffffffffffffffffffffffffffffffffffff1673ffffffffffffffffffffffffffffffffffffffff16815260200190815260200160002060008581526020019081526020016000205461312e90919063ffffffff16565b600160003373ffffffffffffffffffffffffffffffffffffffff1673ffffffffffffffffffffffffffffffffffffffff16815260200190815260200160002060008481526020019081526020016000208190555060008083815260200190815260200160002060010160009054906101000a900473ffffffffffffffffffffffffffffffffffffffff1673ffffffffffffffffffffffffffffffffffffffff1663a9059cbb33856040518363ffffffff1660e01b81526004016120c0929190613880565b602060405180830381600087803b1580156120da57600080fd5b505af11580156120ee573d6000803e3d6000fd5b505050506040513d601f19601f820116820180604052508101906121129190613248565b50505050565b6060600060048054905067ffffffffffffffff811115612161577f4e487b7100000000000000000000000000000000000000000000000000000000600052604160045260246000fd5b60405190808252806020026020018201604052801561219a57816020015b612187613170565b81526020019060019003908161217f5790505b50905060005b600480549050811015612301576040518060400160405280600080600485815481106121f5577f4e487b7100000000000000000000000000000000000000000000000000000000600052603260045260246000fd5b9060005260206000200154815260200190815260200160002060000154815260200160008060048581548110612254577f4e487b7100000000000000000000000000000000000000000000000000000000600052603260045260246000fd5b9060005260206000200154815260200190815260200160002060010160009054906101000a900473ffffffffffffffffffffffffffffffffffffffff1673ffffffffffffffffffffffffffffffffffffffff168152508282815181106122e3577f4e487b7100000000000000000000000000000000000000000000000000000000600052603260045260246000fd5b602002602001018190525080806122f990613cbb565b9150506121a0565b508091505090565b80600073ffffffffffffffffffffffffffffffffffffffff1660008083815260200190815260200160002060010160009054906101000a900473ffffffffffffffffffffffffffffffffffffffff1673ffffffffffffffffffffffffffffffffffffffff1614156123af576040517f08c379a00000000000000000000000000000000000000000000000000000000081526004016123a6906139d1565b60405180910390fd5b60008083815260200190815260200160002060010160009054906101000a900473ffffffffffffffffffffffffffffffffffffffff1673ffffffffffffffffffffffffffffffffffffffff166323b872dd3330866040518463ffffffff1660e01b815260040161242193929190613849565b602060405180830381600087803b15801561243b57600080fd5b505af115801561244f573d6000803e3d6000fd5b505050506040513d601f19601f820116820180604052508101906124739190613248565b506124d783600160003373ffffffffffffffffffffffffffffffffffffffff1673ffffffffffffffffffffffffffffffffffffffff16815260200190815260200160002060008581526020019081526020016000205461314490919063ffffffff16565b600160003373ffffffffffffffffffffffffffffffffffffffff1673ffffffffffffffffffffffffffffffffffffffff168152602001908152602001600020600084815260200190815260200160002081905550505050565b83600073ffffffffffffffffffffffffffffffffffffffff1660008083815260200190815260200160002060010160009054906101000a900473ffffffffffffffffffffffffffffffffffffffff1673ffffffffffffffffffffffffffffffffffffffff1614156125d6576040517f08c379a00000000000000000000000000000000000000000000000000000000081526004016125cd906139d1565b60405180910390fd5b847f444149000000000000000000000000000000000000000000000000000000000081141561263a576040517f08c379a000000000000000000000000000000000000000000000000000000000815260040161263190613971565b60405180910390fd5b600180811115612673577f4e487b7100000000000000000000000000000000000000000000000000000000600052602160045260246000fd5b8360018111156126ac577f4e487b7100000000000000000000000000000000000000000000000000000000600052602160045260246000fd5b141561274a5784600160003373ffffffffffffffffffffffffffffffffffffffff1673ffffffffffffffffffffffffffffffffffffffff1681526020019081526020016000206000888152602001908152602001600020541015612745576040517f08c379a000000000000000000000000000000000000000000000000000000000815260040161273c90613991565b60405180910390fd5b612810565b61275d848661315a90919063ffffffff16565b600160003373ffffffffffffffffffffffffffffffffffffffff1673ffffffffffffffffffffffffffffffffffffffff16815260200190815260200160002060007f4441490000000000000000000000000000000000000000000000000000000000815260200190815260200160002054101561280f576040517f08c379a0000000000000000000000000000000000000000000000000000000008152600401612806906139b1565b60405180910390fd5b5b6000600260008881526020019081526020016000206000856001811115612860577f4e487b7100000000000000000000000000000000000000000000000000000000600052602160045260246000fd5b815260200190815260200160002090508060405180610100016040528060055481526020013373ffffffffffffffffffffffffffffffffffffffff1681526020018660018111156128da577f4e487b7100000000000000000000000000000000000000000000000000000000600052602160045260246000fd5b8152602001898152602001888152602001600081526020018781526020014281525090806001815401808255809150506001900390600052602060002090600702016000909190919091506000820151816000015560208201518160010160006101000a81548173ffffffffffffffffffffffffffffffffffffffff021916908373ffffffffffffffffffffffffffffffffffffffff16021790555060408201518160010160146101000a81548160ff021916908360018111156129c7577f4e487b7100000000000000000000000000000000000000000000000000000000600052602160045260246000fd5b0217905550606082015181600201556080820151816003015560a0820151816004015560c0820151816005015560e082015181600601555050600080828054905011612a14576000612a26565b60018280549050612a259190613c10565b5b90505b60008111156130e25760006001811115612a6c577f4e487b7100000000000000000000000000000000000000000000000000000000600052602160045260246000fd5b856001811115612aa5577f4e487b7100000000000000000000000000000000000000000000000000000000600052602160045260246000fd5b148015612b515750818181548110612ae6577f4e487b7100000000000000000000000000000000000000000000000000000000600052603260045260246000fd5b90600052602060002090600702016005015482600183612b069190613c10565b81548110612b3d577f4e487b7100000000000000000000000000000000000000000000000000000000600052603260045260246000fd5b906000526020600020906007020160050154115b15612b5b576130e2565b600180811115612b94577f4e487b7100000000000000000000000000000000000000000000000000000000600052602160045260246000fd5b856001811115612bcd577f4e487b7100000000000000000000000000000000000000000000000000000000600052602160045260246000fd5b148015612c795750818181548110612c0e577f4e487b7100000000000000000000000000000000000000000000000000000000600052603260045260246000fd5b90600052602060002090600702016005015482600183612c2e9190613c10565b81548110612c65577f4e487b7100000000000000000000000000000000000000000000000000000000600052603260045260246000fd5b906000526020600020906007020160050154105b15612c83576130e2565b600082600183612c939190613c10565b81548110612cca577f4e487b7100000000000000000000000000000000000000000000000000000000600052603260045260246000fd5b906000526020600020906007020160405180610100016040529081600082015481526020016001820160009054906101000a900473ffffffffffffffffffffffffffffffffffffffff1673ffffffffffffffffffffffffffffffffffffffff1673ffffffffffffffffffffffffffffffffffffffff1681526020016001820160149054906101000a900460ff166001811115612d8f577f4e487b7100000000000000000000000000000000000000000000000000000000600052602160045260246000fd5b6001811115612dc7577f4e487b7100000000000000000000000000000000000000000000000000000000600052602160045260246000fd5b8152602001600282015481526020016003820154815260200160048201548152602001600582015481526020016006820154815250509050828281548110612e38577f4e487b7100000000000000000000000000000000000000000000000000000000600052603260045260246000fd5b906000526020600020906007020183600184612e549190613c10565b81548110612e8b577f4e487b7100000000000000000000000000000000000000000000000000000000600052603260045260246000fd5b9060005260206000209060070201600082015481600001556001820160009054906101000a900473ffffffffffffffffffffffffffffffffffffffff168160010160006101000a81548173ffffffffffffffffffffffffffffffffffffffff021916908373ffffffffffffffffffffffffffffffffffffffff1602179055506001820160149054906101000a900460ff168160010160146101000a81548160ff02191690836001811115612f68577f4e487b7100000000000000000000000000000000000000000000000000000000600052602160045260246000fd5b0217905550600282015481600201556003820154816003015560048201548160040155600582015481600501556006820154816006015590505080838381548110612fdc577f4e487b7100000000000000000000000000000000000000000000000000000000600052603260045260246000fd5b90600052602060002090600702016000820151816000015560208201518160010160006101000a81548173ffffffffffffffffffffffffffffffffffffffff021916908373ffffffffffffffffffffffffffffffffffffffff16021790555060408201518160010160146101000a81548160ff0219169083600181111561308c577f4e487b7100000000000000000000000000000000000000000000000000000000600052602160045260246000fd5b0217905550606082015181600201556080820151816003015560a0820151816004015560c0820151816005015560e082015181600601559050506130da60018361312e90919063ffffffff16565b915050612a29565b6130f8600160055461314490919063ffffffff16565b6005819055505050505050505050565b600360009054906101000a900473ffffffffffffffffffffffffffffffffffffffff1681565b6000818361313c9190613c10565b905092915050565b600081836131529190613b60565b905092915050565b600081836131689190613bb6565b905092915050565b604051806040016040528060008019168152602001600073ffffffffffffffffffffffffffffffffffffffff1681525090565b6000813590506131b281613d76565b92915050565b6000815190506131c781613d8d565b92915050565b6000813590506131dc81613da4565b92915050565b6000813590506131f181613dbb565b92915050565b60008135905061320681613dcb565b92915050565b6000806040838503121561321f57600080fd5b600061322d858286016131a3565b925050602061323e858286016131cd565b9150509250929050565b60006020828403121561325a57600080fd5b6000613268848285016131b8565b91505092915050565b60006020828403121561328357600080fd5b6000613291848285016131cd565b91505092915050565b600080604083850312156132ad57600080fd5b60006132bb858286016131cd565b92505060206132cc858286016131a3565b9150509250929050565b600080604083850312156132e957600080fd5b60006132f7858286016131cd565b9250506020613308858286016131e2565b9150509250929050565b60008060006060848603121561332757600080fd5b6000613335868287016131cd565b9350506020613346868287016131f7565b9250506040613357868287016131e2565b9150509250925092565b60008060006060848603121561337657600080fd5b6000613384868287016131cd565b9350506020613395868287016131f7565b92505060406133a6868287016131f7565b9150509250925092565b600080600080608085870312156133c657600080fd5b60006133d4878288016131cd565b94505060206133e5878288016131f7565b93505060406133f6878288016131f7565b9250506060613407878288016131e2565b91505092959194509250565b60006020828403121561342557600080fd5b6000613433848285016131f7565b91505092915050565b6000806040838503121561344f57600080fd5b600061345d858286016131f7565b925050602061346e858286016131cd565b9150509250929050565b6000613484838361373f565b6101008301905092915050565b600061349d83836137e1565b60408301905092915050565b6134b281613c44565b82525050565b6134c181613c44565b82525050565b60006134d282613afd565b6134dc8185613b2d565b93506134e783613add565b8060005b838110156135185781516134ff8882613478565b975061350a83613b13565b9250506001810190506134eb565b5085935050505092915050565b600061353082613b08565b61353a8185613b3e565b935061354583613aed565b8060005b8381101561357657815161355d8882613491565b975061356883613b20565b925050600181019050613549565b5085935050505092915050565b61358c81613c62565b82525050565b61359b81613c62565b82525050565b6135aa81613ca9565b82525050565b6135b981613ca9565b82525050565b60006135cc600f83613b4f565b91507f62616c616e636520746f6f206c6f7700000000000000000000000000000000006000830152602082019050919050565b600061360c600a83613b4f565b91507f6f6e6c792061646d696e000000000000000000000000000000000000000000006000830152602082019050919050565b600061364c601083613b4f565b91507f63616e6e6f7420747261646520444149000000000000000000000000000000006000830152602082019050919050565b600061368c601583613b4f565b91507f746f6b656e2062616c616e636520746f6f206c6f7700000000000000000000006000830152602082019050919050565b60006136cc601383613b4f565b91507f6461692062616c616e636520746f6f206c6f77000000000000000000000000006000830152602082019050919050565b600061370c601983613b4f565b91507f7468697320746f6b656e20646f6573206e6f74206578697374000000000000006000830152602082019050919050565b610100820160008201516137566000850182613810565b50602082015161376960208501826134a9565b50604082015161377c60408501826135a1565b50606082015161378f6060850182613583565b5060808201516137a26080850182613810565b5060a08201516137b560a0850182613810565b5060c08201516137c860c0850182613810565b5060e08201516137db60e0850182613810565b50505050565b6040820160008201516137f76000850182613583565b50602082015161380a60208501826134a9565b50505050565b61381981613c9f565b82525050565b61382881613c9f565b82525050565b600060208201905061384360008301846134b8565b92915050565b600060608201905061385e60008301866134b8565b61386b60208301856134b8565b613878604083018461381f565b949350505050565b600060408201905061389560008301856134b8565b6138a2602083018461381f565b9392505050565b600060208201905081810360008301526138c381846134c7565b905092915050565b600060208201905081810360008301526138e58184613525565b905092915050565b60006020820190506139026000830184613592565b92915050565b600060408201905061391d6000830185613592565b61392a60208301846134b8565b9392505050565b6000602082019050818103600083015261394a816135bf565b9050919050565b6000602082019050818103600083015261396a816135ff565b9050919050565b6000602082019050818103600083015261398a8161363f565b9050919050565b600060208201905081810360008301526139aa8161367f565b9050919050565b600060208201905081810360008301526139ca816136bf565b9050919050565b600060208201905081810360008301526139ea816136ff565b9050919050565b6000602082019050613a06600083018461381f565b92915050565b600061010082019050613a22600083018b61381f565b613a2f602083018a6134b8565b613a3c60408301896135b0565b613a496060830188613592565b613a56608083018761381f565b613a6360a083018661381f565b613a7060c083018561381f565b613a7d60e083018461381f565b9998505050505050505050565b600060a082019050613a9f600083018861381f565b613aac602083018761381f565b613ab9604083018661381f565b613ac6606083018561381f565b613ad3608083018461381f565b9695505050505050565b6000819050602082019050919050565b6000819050602082019050919050565b600081519050919050565b600081519050919050565b6000602082019050919050565b6000602082019050919050565b600082825260208201905092915050565b600082825260208201905092915050565b600082825260208201905092915050565b6000613b6b82613c9f565b9150613b7683613c9f565b9250827fffffffffffffffffffffffffffffffffffffffffffffffffffffffffffffffff03821115613bab57613baa613d04565b5b828201905092915050565b6000613bc182613c9f565b9150613bcc83613c9f565b9250817fffffffffffffffffffffffffffffffffffffffffffffffffffffffffffffffff0483118215151615613c0557613c04613d04565b5b828202905092915050565b6000613c1b82613c9f565b9150613c2683613c9f565b925082821015613c3957613c38613d04565b5b828203905092915050565b6000613c4f82613c7f565b9050919050565b60008115159050919050565b6000819050919050565b6000819050613c7a82613d62565b919050565b600073ffffffffffffffffffffffffffffffffffffffff82169050919050565b6000819050919050565b6000613cb482613c6c565b9050919050565b6000613cc682613c9f565b91507fffffffffffffffffffffffffffffffffffffffffffffffffffffffffffffffff821415613cf957613cf8613d04565b5b600182019050919050565b7f4e487b7100000000000000000000000000000000000000000000000000000000600052601160045260246000fd5b7f4e487b7100000000000000000000000000000000000000000000000000000000600052602160045260246000fd5b60028110613d7357613d72613d33565b5b50565b613d7f81613c44565b8114613d8a57600080fd5b50565b613d9681613c56565b8114613da157600080fd5b50565b613dad81613c62565b8114613db857600080fd5b50565b60028110613dc857600080fd5b50565b613dd481613c9f565b8114613ddf57600080fd5b5056fea2646970667358221220acb9abd9ca4130c581f5e34edcde58d83f1caf60b6e80466c9ab834ca4d1c15464736f6c63430008000033",
  "immutableReferences": {},
  "source": "// SPDX-License-Identifier: UNLICENSED\npragma solidity ^0.8.0;\n\nimport '@openzeppelin/contracts/token/ERC20/IERC20.sol'; \nimport '@openzeppelin/contracts/utils/math/SafeMath.sol'; \n\ncontract Dex {\n\n  using SafeMath for uint;\n\n  enum Side { BUY, SELL }\n\n  struct Order {\n    uint id;\n    address trader;\n    Side side;\n    bytes32 ticker;\n    uint amount;\n    uint filled;\n    uint price;\n    uint date;\n  }\n\n  struct Token {\n    bytes32 ticker;\n    address tokenAddress; \n  }\n\n  mapping(bytes32 => Token) public tokens;\n  mapping(address => mapping(bytes32 => uint)) public traderBalances;\n  mapping(bytes32 => mapping(uint => Order[])) public orderBook;\n\n  address public admin;\n  \n  bytes32 constant DAI = bytes32('DAI');\n  bytes32[] public tokenList;\n  \n  uint public nextOrderId;\n  uint public nextTraderId;\n\n  event NewTrade(\n    uint tradeId,\n    uint orderId,\n    bytes32 indexed ticker,\n    address indexed trader1,\n    address indexed trader2,\n    uint amount,\n    uint price,\n    uint date\n  );\n\n  constructor() {\n    admin = msg.sender;\n  }\n\n  function getOrders(bytes32 ticker, Side side) external view returns(Order[] memory) {\n    return orderBook[ticker][uint(side)];\n  }\n\n  function getTokens() \n    external \n    view \n    returns(Token[] memory) {\n    Token[] memory _tokens = new Token[](tokenList.length);\n    for (uint i = 0; i < tokenList.length; i++) {\n      _tokens[i] = Token(\n        tokens[tokenList[i]].ticker,\n        tokens[tokenList[i]].tokenAddress\n      );\n    }\n    return _tokens;\n  }\n  \n  function addToken(bytes32 ticker, address tokenAddress) onlyAdmin() external {\n    tokens[ticker] = Token(ticker, tokenAddress);\n    tokenList.push(ticker);\n  }\n\n  function deposit(uint amount, bytes32 ticker) external tokenExist(ticker) {\n    IERC20(tokens[ticker].tokenAddress).transferFrom(msg.sender, address(this), amount);\n    traderBalances[msg.sender][ticker] = traderBalances[msg.sender][ticker].add(amount);\n  }\n\n  function withdraw(uint amount, bytes32 ticker) external tokenExist(ticker) {\n    require(\n      traderBalances[msg.sender][ticker] >= amount,\n      'balance too low'\n    );\n    traderBalances[msg.sender][ticker] = traderBalances[msg.sender][ticker].sub(amount);\n    IERC20(tokens[ticker].tokenAddress).transfer(msg.sender, amount);\n  }\n\n  function createLimitOrder(bytes32 ticker, uint amount, uint price, Side side) tokenExist(ticker) tokenIsNotDai(ticker) external {\n    if(side == Side.SELL) {\n      require(traderBalances[msg.sender][ticker] >= amount, 'token balance too low');\n    } else {\n      require(\n        traderBalances[msg.sender][DAI] >= amount.mul(price),\n        'dai balance too low'\n      );\n    }\n\n    Order[] storage orders = orderBook[ticker][uint(side)];\n    orders.push(Order(\n      nextOrderId,\n      msg.sender,\n      side,\n      ticker,\n      amount,\n      0,\n      price,\n      block.timestamp\n    ));\n\n    uint i = orders.length > 0 ?  orders.length - 1 : 0;\n    while(i > 0) {\n      if(side == Side.BUY && orders[i - 1].price > orders[i].price) {\n        break;\n      }\n      \n      if(side == Side.SELL && orders[i -1 ].price < orders[i].price) {\n        break;\n      }\n\n      Order memory order = orders[i - 1];\n      orders[i - 1] = orders[i];\n      orders[i] = order;\n      i = i.sub(1);\n    }\n\n    nextOrderId = nextOrderId.add(1);\n  }\n\n  function createMarketOrder(bytes32 ticker, uint amount, Side side) tokenExist(ticker) tokenIsNotDai(ticker) external {\n    if(side == Side.SELL) {\n      require(traderBalances[msg.sender][ticker] >= amount, 'token balance too low');\n    } \n\n    Order[] storage orders = orderBook[ticker][uint(side == Side.BUY ? Side.SELL : Side.BUY)];\n    uint i;\n    uint remaining = amount;\n\n    while(i < orders.length && remaining > 0) {\n      uint available = orders[i].amount.sub(orders[i].filled);\n      uint matched = (remaining > available) ? available : remaining;\n      remaining = remaining.sub(matched);\n      orders[i].filled = orders[i].filled.add(matched);\n      \n      emit NewTrade(\n        nextTraderId, \n        orders[i].id, \n        ticker, \n        orders[i].trader, \n        msg.sender, \n        matched, \n        orders[i].price, \n        block.timestamp\n      );\n\n      if(side == Side.SELL) {\n        traderBalances[msg.sender][ticker] = traderBalances[msg.sender][ticker].sub(matched);\n        traderBalances[msg.sender][DAI] = traderBalances[msg.sender][DAI].add(matched.mul(orders[i].price));\n        \n        traderBalances[orders[i].trader][ticker] = traderBalances[orders[i].trader][ticker].add(matched);\n        traderBalances[orders[i].trader][DAI] = traderBalances[orders[i].trader][DAI].sub(matched.mul(orders[i].price));\n      }\n\n      if(side == Side.BUY) {\n        require(\n          traderBalances[msg.sender][DAI] >= matched.mul(orders[i].price),\n          'dai balance too low'\n        );\n\n        traderBalances[msg.sender][ticker] = traderBalances[msg.sender][ticker].add(matched);\n        traderBalances[msg.sender][DAI] = traderBalances[msg.sender][DAI].sub(matched.mul(orders[i].price));\n       \n        traderBalances[orders[i].trader][ticker] = traderBalances[orders[i].trader][ticker].sub(matched);\n        traderBalances[orders[i].trader][DAI] = traderBalances[orders[i].trader][DAI].add(matched.mul(orders[i].price));\n      }\n\n      nextTraderId = nextTraderId.add(1);\n      i = i.add(1);\n    }\n\n    i = 0;\n    while(i < orders.length && orders[i].filled == orders[i].amount) {\n      for(uint j = i; j < orders.length - 1; j++) {\n        orders[j] = orders[j + 1];\n      }\n\n      orders.pop();\n      i = i.add(1);\n    }\n  }\n\n  modifier onlyAdmin() {\n    require(msg.sender == admin, 'only admin');\n    _;\n  }\n\n  modifier tokenExist(bytes32 ticker) {\n    require(tokens[ticker].tokenAddress != address(0), 'this token does not exist');\n    _;\n  } \n\n  modifier tokenIsNotDai(bytes32 ticker) {\n    require(ticker != DAI, 'cannot trade DAI');\n    _;\n  }\n}",
  "sourcePath": "/Applications/Projetos/Blockchain/dex/contracts/dex.sol",
  "compiler": {
    "name": "solc",
    "version": "0.8.0+commit.c7dfd78e.Emscripten.clang"
  },
  "schemaVersion": "3.4.1",
  "updatedAt": "2021-08-03T18:25:48.268Z",
  "networkType": "ethereum",
  "devdoc": {
    "kind": "dev",
    "methods": {},
    "version": 1
  },
  "userdoc": {
    "kind": "user",
    "methods": {},
    "version": 1
  }
}